:020000040000FA
:10000000D0212020C1020000C50200007D25000093
:1000100000000000000000000000000000000000E0
:10002000000000000000000000000000C902000005
:100030000000000000000000CB020000CD02000024
:10004000CF0200005D250000CF020000CF020000BB
:10005000CF020000CF020000CF020000CF0200005C
:1000600000000000CF020000CF02000000000000EE
:1000700000000000CF020000CF020000CF0200000D
:10008000CF020000CF020000CF020000CF0200002C
:10009000CF020000CF0200000000000000000000BE
:1000A000CF020000CF0200000000000000000000AE
:1000B000CF02000000000000CF020000CF020000CD
:1000C00000F002F800F0D1F812A030C80838241867
:1000D0002D18AC4201D100F0C8F80FCCA246AB46B7
:1000E0000CA730CF2D1B083F3F197C427F1E544484
:1000F0002D090426F441641EAC4201D300F0B5F88A
:100100000126334200D0FB1A3343984754465D46DC
:10011000DFE700002C5400004C54000000000000F9
:10012000103A02D378C878C1FAD8520701D330C840
:1001300030C101D504680C60704700000000000069
:100140007047000000000000002300240025002666
:10015000103A01D378C1FBD8520700D330C100D583
:100160000B60704710B56E2902D100F0CFFB10BDB7
:10017000702902D100F00BFD10BD662902D105F0F7
:10018000C7F810BD652902D105F0C2F810BD672976
:1001900002D105F0BDF810BD612902D105F0C0F80B
:1001A00010BD03681B0A01D380231943692902D1BA
:1001B00000F076FB10BD642902D100F071FB10BD88
:1001C000752902D100F06CFB10BD6F2902D100F03F
:1001D00089FC10BD782902D100F0C6FC10BDE929C8
:1001E00002D100F025FC10BDE42902D100F020FC72
:1001F00010BDF52902D100F01BFC10BDEF2902D182
:1002000000F07CFC10BDF82902D100F0BBFC10BD51
:100210000368DB0901D380231943632902D101F06C
:100220004CFA10BD732902D101F04FFA10BDE32939
:1002300002D101F059FA10BDF32902D101F05CFAA4
:1002400010BD002010BD1FB501F0EEFA0400002023
:10025000002104F0E1FE401C60600020002104F059
:10026000C5FEE0601FBD10B510BD01F0B5FA114626
:10027000FFF7E9FF03F0B2FE01F04AFE03B4FFF717
:10028000F2FF03BC01F0F4FE70B505460C461646BD
:1002900002E00FCC0FC5103E102EFAD2082E02D36A
:1002A00003CC03C5083E042E07D301CC01C5361F7D
:1002B00003E021782970641C6D1C761EF9D270BD94
:1002C00006480047FEE7FEE7FEE7FEE7FEE7FEE73B
:1002D00003480449024A044B70470000C100000073
:1002E000D01E2020D0212020D01E20207CB51D46ED
:1002F00016460C00009007D04142A14202D30019DB
:10030000401E01E00020C043064B7B442A4669465C
:100310000190304600F013FB002C02D0009A00211F
:1003200011707CBD5706000001E004C0091F0429BC
:10033000FBD28B0701D50280801CC90700D0027058
:10034000704700290BD0C30702D00270401C491E21
:10035000022904D3830702D50280801C891EE3E7AB
:100360000022EEE70022DFE7002203098B4273D36D
:10037000030A8B4258D3030B8B423CD3030C8B42B2
:1003800021D312E003460B437FD4002243088B4263
:1003900074D303098B425FD3030A8B4244D3030B0C
:1003A0008B4228D3030C8B420DD30902FF2212BAD1
:1003B000030C8B4202D31212090265D0030B8B424D
:1003C00019D300E0090AC30B8B4201D3CB03C01A37
:1003D0005241830B8B4201D38B03C01A5241430B12
:1003E0008B4201D34B03C01A5241030B8B4201D302
:1003F0000B03C01A5241C30A8B4201D3CB02C01A6D
:100400005241830A8B4201D38B02C01A5241430AE4
:100410008B4201D34B02C01A5241030A8B4201D3D3
:100420000B02C01A5241CDD2C3098B4201D3CB017A
:10043000C01A524183098B4201D38B01C01A524129
:1004400043098B4201D34B01C01A524103098B422D
:1004500001D30B01C01A5241C3088B4201D3CB0018
:10046000C01A524183088B4201D38B00C01A5241FB
:1004700043088B4201D34B00C01A5241411A00D2AB
:1004800001465241104670475DE0CA0F00D0494214
:10049000031000D3404253409C46002203098B4284
:1004A0002DD3030A8B4212D38901FC2212BA030A0C
:1004B0008B420CD3890192118B4208D3890192118E
:1004C0008B4204D389013AD0921100E08909C30913
:1004D0008B4201D3CB01C01A524183098B4201D315
:1004E0008B01C01A524143098B4201D34B01C01A00
:1004F000524103098B4201D30B01C01A5241C30878
:100500008B4201D3CB00C01A524183088B4201D3E6
:100510008B00C01A5241D9D243088B4201D34B0001
:10052000C01A5241411A00D2014652411046634658
:100530005B1001D34042002B00D54942704763460F
:100540005B1000D3404201B50449002802DC491C7D
:10055000084000E00846C046C04602BDFFFFFF7FDE
:1005600070477047704700000121C90501234118F9
:1005700042001B06D3185B0E0AD0C1100722D20618
:10058000891840075242D14201D55200891870475C
:10059000090208D50146002A03D0C10FC90700206F
:1005A000704710467047420202D00020024970474F
:1005B000072109050143F4E70000F87FF0B5FF25A6
:1005C0002D04C609C209FF2704462E400137CB0976
:1005D0003E4348402A402B400746002A6BD0002B60
:1005E00069D0AA4267D0AB4265D0002800DA324613
:1005F0000125ED0529432C4309022002090AD21ADC
:100600004B0C7F24E31A434C000A7C44E35C7D24BA
:100610002404121914145B00A218884201D3521C3E
:1006200000E0400049420C465C4324115C43DB017E
:100630006415E318040A5C43C502200D0C464443CC
:100640006419250A5D432303EC0C0D466543000342
:100650000019EB184C42A34201D35B18401CD4058F
:100660002018002B07D05B00C91804D3401C0029B8
:1006700001D1400840003F2189048A4209D3002A61
:1006800008DC1106090F04D0032149074018C00FE8
:10069000C007F0BD01224100120689187F225206D0
:1006A0009142F6D205214907C84201D59010F0BD0C
:1006B000FF20C005F0BD002F00DA32461648AA42DE
:1006C00007D2AB4205D21902090E17D0F80FC007A6
:1006D000F0BDFF2563002D06AB42F9D84900A942C1
:1006E000F6D8AB4201D1A942F2D0A94201D10021F2
:1006F00001E061004908D0050843F0BD1102090E70
:10070000FBD0FF200243D005F0BD0A46014610464B
:1007100054E70000224D00000000C07F10B50146E4
:100720009E240002CA15A307002A02D01843002AFB
:1007300004DBA21A002A0CDDD04010BD1206120EF6
:1007400001D140004008A21A03D4D0404042002802
:10075000F3DDFF2248001206904201D9002010BDAF
:10076000C817C043584010BD1F22030C02D10F22EE
:1007700000041CD0030E01D10002083A030F01D17E
:100780000001121F830F01D18000921E002801DB9F
:100790004000521ED20551180212511819229040E1
:1007A00004D3491C002801D1490849000846704774
:1007B000C10FC90700D04042012292071143D3E77D
:1007C00001218907D0E710B500F05CFB006810BD7F
:1007D00010B5044600F056FB046010BD70B5044629
:1007E00085690068C10601D5302600E02026C007D3
:1007F00007D070BD62683046A1689047206A401CEF
:1008000020626D1EF6D570BD70B50446856900780E
:10081000C00707D170BD6268A16820209047206A98
:10082000401C20626D1EF6D570BD09684A0501D5D1
:1008300040B27047C905FCD500B2704709684A0547
:1008400001D5C0B27047C905FCD580B2704770B5FC
:100850000C460546012A05D02878800600D5EA69AD
:10086000002302E0012305E05B1C934202D2E05C1E
:100870000028F9D1A869E618C01AA861286AC0182A
:1008800028622846FFF7AAFF04E06A682078A96872
:10089000641C9047B442F8D32846FFF7B5FF70BDFB
:1008A000F7B5002575291068009914A611D0FFF737
:1008B000BCFF002802DA404211A608E0009909684E
:1008C0008A0701D50FA602E0490704D50EA6012527
:1008D00001E0FFF7B3FF009F0024243704E000F09D
:1008E00030FF30313955641C0028F8D12B46324690
:1008F0002146009800F007FBFEBD0000000000004C
:100900002D0000002B00000020000000116802688C
:10091000006A530501D5087009E0D30501D50880A8
:1009200005E0130602D5C21705C100E008600120EA
:100930007047000001694A1C02610878704700B5E1
:100940008FB00291002105910549019379440391EB
:1009500011460490684600F027F90FB000BD000072
:10096000E5FFFFFF0CC908399A4202D2531C0B6005
:1009700010707047F7B50446154686B02B4878448A
:10098000002703C83E460090019111E007986A468F
:100990007100415A02A800F0B3FE411C07D0217833
:1009A000890603D5E269391891420ED83F18761CA2
:1009B0002078800602D5E069B84206DDAE42E5DB6C
:1009C00007987100405A0028E0D1A069C01BA061BF
:1009D0002046FFF703FF154878445A3803C80090B3
:1009E0000020019116E041006A460798415A02A88A
:1009F00000F086FE0590401C0AD0002505E06268E4
:100A000002A8A168405D90476D1C05988542F6D309
:100A10000498401CB0420490E5DB206AC0192062B3
:100A20002046FFF7F1FE09B0F0BD0000EE490000DE
:100A3000F7B5D21D0025D20815A6D200F52905CAA2
:100A400011D0002A05DA00214042914111A60A4640
:100A500008E0009909688B0701D50FA602E0490755
:100A600001D50EA601251146009F0024243704E07D
:100A700000F00CFA30323A55641C02460A43F7D1B2
:100A80002B4632462146009800F03DFAFEBD00009C
:100A9000000000002D0000002B00000020000000DE
:100AA00070B504460021243408E05507D2086D0FC4
:100AB000303565545D072A43DB08491C15461D4344
:100AC000F3D10468002310A2250708D520252C4067
:100AD0000C4304D0C46901230CA2641EC46100F05D
:100AE00012FA70BD10B5044621461068FFF7A6FE45
:100AF000002302462046FFF7D3FF10BDD21DD108C8
:100B0000C9000CC9CCE70000000000003000000064
:100B1000F8B50F460188090502D5224C7C4402E055
:100B2000204C7C440E3405460021243508E016078D
:100B30001209360FA65D6E541E0732431B09491C6D
:100B400016461E43F3D1224604780023240705D518
:100B5000702F06D0002901D00223113200F0D3F902
:100B6000F8BD01231032F9E770B504460D46214661
:100B70001068FFF763FE0023024629462046FFF770
:100B8000C7FF70BDD21DD308DB000CCBC0E730B46B
:100B9000036820241268234303600823C36130BC28
:100BA0000023B5E758480000F3B50446002081B0A3
:100BB00020622046E1688847002872D0252802D0AC
:100BC0006268A168ABE0594F00267F442046E16887
:100BD00088472028054608DB312D06D278192038B1
:100BE0000078002801D00643F0E7B00701D50420C3
:100BF00086430020E0610746A0612A2D0AD02846DE
:100C000003F07EFE002827D0B8000019303D009088
:100C1000856119E00298BA00121902C89161029028
:100C20002046E1688847012F054617D1E069002872
:100C30001FDA202086431CE000980A21806948437F
:100C400000994019303888612046E1688847054698
:100C500003F056FE0028EFD1012F0AD02E2D08D127
:100C60002046E16888470546202006437F1C022F66
:100C7000C3DBA069002803DA4042A06101200643DB
:100C8000F00701D0102086436C2D0BD0682D09D0C1
:100C90004C2D3CD06A2D38D0742D38D07A2D36D0DA
:100CA00016E040E0E1682F4620468847B8420546F6
:100CB00009D16C2F29D001208002E168064320462B
:100CC0008847054604E06C2F1DD0FF200130064305
:100CD000002D28D028464138192803D80120C00209
:100CE00006432035204626602946029A1646FFF71D
:100CF00039FA002810D001280BD0F61DF008C000EA
:100D00000830029055E74020E1E78020D5E7002039
:100D1000D3E7361D02964CE762682846A1689047E3
:100D2000206A401C44E7206AFEBD0000D247000054
:100D3000C10D10B50906090E2ED0FF2931D07E292C
:100D40002DD319D0962916D2024675398A4005D07E
:100D5000002402468A4003D3012302E00124F8E77D
:100D600000230222CA41511E8843002B03D0801861
:100D7000002C00D0904310BD0121420201D101227C
:100D800000E00022C00FC0070029F4D0002AF2D1F1
:100D90007F21C905084310BDC00FC00710BD002149
:100DA000EFE74102FAD0014810BD00000000C07F0B
:100DB00010B5FF22C30D134009D05A4007D091420D
:100DC00005DA5C42A14202DDC905081810BDC40F56
:100DD000E407002B06D0002A06D0002902DBFF2002
:100DE000C0050443204610BD4102FCD0004810BDA0
:100DF0000000C07F30B5C30D1906214A090E31D05D
:100E0000FF292FD000283ADB0102500201430120C4
:100E10007D33C34000D24908012080071724091AF6
:100E20002406490882102343FF252D064C00211A71
:100E300004D4891A02D45400201800E02146520834
:100E40005B19F3D51A220446944007D382068A42DE
:100E500003D180218030884300E08030C009D9056B
:100E6000081830BDFF2904D04100FAD0C00FC007D8
:100E700030BD410201D0104630BD0028FCDAFAE74F
:100E80000000C07F00487047100020200B4670B55E
:100E9000024689078008084319469D08141AA9418B
:100EA00025090807054308092C194841250A0106A8
:100EB0000D43010A2C194141200C0D0428430D0C4F
:100EC00000194D41002140194D41C00869070843F0
:100ED000E908840F8D002543840024184D4124190E
:100EE0006D41121BAB4107E00925ED432C1152194E
:100EF00063410024401C61411C460A250026551B05
:100F0000B441F1D270BDFFB504460D4681B0243026
:100F100000902168880604D51022E0699143216081
:100F200000E00120A84201DD471B00E000270498F3
:100F3000A1697A191018081AA0612078C00602D495
:100F40002046FFF74BFC002608E003986268A16882
:100F5000805D9047206A401C761C2062049886427F
:100F6000F3DB2078C0060AD52046FFF737FC06E001
:100F70006268A16830209047206A401C2062384691
:100F80007F1E0028F4DC07E000986268A168405DDD
:100F90009047206A401C206228466D1E0028F3DC22
:100FA0002046FFF731FC2078000602D5022005B06C
:100FB000F0BD0120FBE70000FFB50C461E468FB0D8
:100FC00003CA089009914F007D0D00D16D1E0021CC
:100FD00008460020C0460321099A89050840002AD6
:100FE00003DA8200801840080840800D01280A902A
:100FF00002DD0020C0430A90089807430DD0F04856
:10100000F049281848430714189800281DD0754245
:10101000291E1DDD0A9842421BE01898012802D0C3
:101020000020302104E00020F24305E02154401C60
:10103000B042FBDB30460022189B002121540F995F
:101040008B600A60486013B0F0BDBD1B6D1CDFE70C
:101050000A9A002900DA69420BA800F02DFC0BABBC
:1010600007CB03AB07C30899099800F091FC6B46C6
:1010700007C30146D4480918002D00910BDDD24961
:1010800003980A9A49424018002303A9039068462E
:1010900000F0EEFE08E003990A9A0023081803A95D
:1010A0000390684600F08EFE6B4607C30004000CF8
:1010B00003D00020C043410800E01046189A002ADF
:1010C00003D00022009215461EE0751E05D4FFF7DE
:1010D000DDFE303262556D1EF9D5012208430796B8
:1010E00002D000227F1C04E02078302801D10022A9
:1010F0007F1E002A069787D01EE0112D07DAFFF722
:10110000C5FE303262556D1C02460A43F5D10843D4
:1011100003D00098002819D00EE00021681E05E0D9
:10112000235C625C63542254401E491C8142F7DBFD
:10113000A81B401E07950690079A18990020A054F6
:101140000F98079B069A81600CC07CE7112600204F
:10115000189059E7D21DF0B50D460446D10893B05A
:10116000C90003C90C900D9103F09EFA02460D9838
:10117000C00F01D02D2007E02068810701D52B206A
:1011800002E04007C00F4001032A0F9001D0072A58
:1011900005DB03462946204600F04AFB0EE1207895
:1011A000800601D5E76900E006272846652D04D0B2
:1011B000662814D0672D69D12DE00020112F0090F2
:1011C00001DB112300E07B1C0CAA03A910A8FFF788
:1011D000F3FE1199002610987D1C0E9142E001202B
:1011E0003B460CAAC0070B900120009003A910A851
:1011F000FFF7E2FE119D12981099002600280E9527
:1012000001D1781C0D18781B02D446427D1C761E35
:10121000E81B00903AE0012F00DA01270020112F8F
:10122000009001DD112300E03B460CAA03A910A8A1
:10123000FFF7C2FE11993D46109800260E912178C5
:1012400009070BD40E99A94200DA0D4603A9012D16
:1012500004DD4A19203AD27F302A06D0B84201DA9A
:10126000011D04DA012100910FE06D1EEFE7002857
:1012700002DC86192D1A03E0411CA94200DD0D464F
:10128000801B401C00900120C0070B9020780007B5
:1012900005D40098A84202DB0020C04300906946B4
:1012A0000020C8720B98012102AF0337C90788429A
:1012B00025D0022010902B2011900B9800280BDADB
:1012C00040420B902D20119006E00B9800F039FA67
:1012D00030317F1E0B9039701099481E00291090F4
:1012E000F3DC0B980028F0D111987F1E387020880D
:1012F000000501D5452000E065207F1E387001A85B
:10130000C01BC01D0B900F98002800D00120411970
:101310000098C01709180B980818A169081A401EF0
:10132000A0612078C00602D42046FFF757FA0F9834
:10133000002805D06268A1689047206A401C20629E
:101340002078C00625D52046FFF748FA21E0002E78
:1013500007DB0E98B04204DD03A86268805DA168D7
:1013600002E06268A16830209047206A761C401C29
:1013700020620098401E002800900AD100F054FA24
:10138000C06862680168405CA1689047206A401CA0
:10139000206228466D1E0028D9DC07E06268387894
:1013A000A1687F1C9047206A401C20620B99481E50
:1013B00000290B90F2DC2046FFF726FA032042E6D4
:1013C00001FCFFFF104D0000E1DFFFFFD21DF0B573
:1013D00004460D46D0088DB0C00046680768314607
:1013E000384603F061F90246F00F01D02D2307E0E3
:1013F0002068810701D52B2302E04007C00F43017D
:101400006846002B037001D0012000E00020032A71
:101410000A9001D0072A04DB2946204600F008FA8A
:101420002DE12078800601D40D2500E0E5697000EB
:10143000400D0D2D01904BDA300D00210B90084628
:101440000020C046032189050840002E05DA8200ED
:101450008018C20F1018401008408015012801DDC7
:101460000020C043A9000023182906D39C460A4641
:101470000123183A1B07D34003E001221205CA409A
:1014800094460C31202902D33A46203900E03246F6
:101490008A40002802DD002A06D119E0002817D171
:1014A0000121C9078A4213D3194663467F185E415A
:1014B000002806D10120C007824202D10846874396
:1014C0009E430B98310D814202D00198401C01903F
:1014D0002088000502D57149794402E06F497944BA
:1014E00019396B460A9830221A540A980A7C401C13
:1014F0001A54401C0A900198002801DC302000E0BA
:1015000031201872019A0120002A02D0644BD218AF
:1015100004E072003A4302D0614A521C0192002D4D
:1015200002DC2278120703D56A462E205072022070
:101530000022864694460CE032033601120F6D1EDF
:101540008B5C02AA13546246521C401C9446052A26
:1015500001DA002DF0DC002202AE08E03B0F3F0173
:10156000CB5C521C6D1E3354401C082A01DA002D3E
:10157000F4DC23689A0601D511E0401E704504DDB5
:101580003218203AD27F302AF7D0002807DD3218EF
:10159000203AD27F2E2A02D11A0700D4401E002DF5
:1015A00003DD3E223254401C6D1E497C31540199AA
:1015B000401C002906DA2D21471C31540198404275
:1015C000019003E02B21471C315401987D21C90073
:1015D000884206DBFEF7D6FE3030F0557F1C0191C5
:1015E00001E0642808DB01986421FEF7CBFE30306F
:1015F000F0557F1C019101E00A2806DB01980A21C1
:10160000FEF7C0FE3030F0557F1C01980A21FEF72E
:10161000B9FE3031F1550A98A1697F1C7A1910186A
:10162000081AA0612078C00602D42046FFF7D6F839
:10163000216A6E460A980818206204E062683078D1
:10164000A168761C90470A98401E0A90401CF5D16C
:101650002078C00602D52046FFF7C0F802AE09E0A8
:101660003078761C3E280DD06268A1689047206AC9
:10167000401C20627F1EF3D22046FFF7C5F80DB054
:101680000320F0BD206A4019206203E06268A1686F
:10169000302090476D1EEDD3F8E700000B3F0000AF
:1016A00001FCFFFF10B54369002B02D0C046C046C5
:1016B00001E0FFF7CCF8012010BD1278014624317B
:1016C0000A7000224A700122ECE711680022D2431E
:1016D000E8E710B54369002B02D0C046C04601E0E0
:1016E000FFF748F9012010BD128801462431828499
:1016F0000022C2840122ECE711680022D243E8E70D
:10170000F8B516460C46054600F086F80368FF203B
:101710000230C05C012807D0FF2C0FD8185D0028CC
:101720000CD001202C70F8BDFF333246214608331F
:101730001868C71828460023B847F8BD0020C043E2
:10174000F8BD01468008081A02091018020A10188C
:10175000020C1018C008820012185200891A01E009
:10176000401C0A390A29FBD27047000010B5FF233C
:101770001B0644009C421DD84C009C421AD80346CC
:10178000124A0B4307D4401A02D3EFF3008010BD76
:10179000EFF3008010BD081A03D3EFF300809043ED
:1017A00005E0EFF3008001219043C907084380F36F
:1017B000008810BD0D231B041A4204D011460020DE
:1017C00000F0AEFB10BD00F0C3FB10BD00000090A8
:1017D00000487047100020207546FFF7F9FFAE461D
:1017E000050069465346C008C000854618B020B5BC
:1017F000FEF76EFD60BCB64600260027C0C5C0C51A
:10180000C0C5C0C5C0C5C0C5C0C5C0C5403D4908EC
:1018100049008D467047000010B500F005F8001D26
:1018200010BD00BFF5370000004870473000202091
:10183000F8B51F46044601230068DB020326014673
:101840001840072A05DB002801D017A506E017A5D8
:1018500004E0002801D016A500E016A51020814361
:101860002160A069C01E002FA06101D0401EA061B0
:101870002046FEF7B3FF002F09D038466268A16802
:101880009047206A401C2062C01C206206E0206A4B
:10189000FAE762682878A1686D1C9047761EF8D236
:1018A0002046FEF7B1FFF8BD4E414E006E616E005E
:1018B000494E4600696E6600F7B516468AB0334851
:1018C00078446C4603467C33C06F5A689B680DC4ED
:1018D0002E487844763003AC0DC80DC43720C001C3
:1018E000081837211B30FEF74DFD05460C46803D9C
:1018F0001B3C02D56442012000E000200027099033
:1019000010E0E0070CD00C2020497843794432469F
:101910004C3941186846012300F054FA6B4607C35E
:1019200064107F1C002CECD1184F7F442E3F16E032
:10193000E80712D02001C0190EC80691089307923B
:101940000068F04201D1981908903246012306A997
:1019500003A800F037FA03AB07C36D10641C002D19
:10196000E6D10998002806D032466946012303A82B
:1019700000F07EFA05E001233246694603A800F034
:1019800021FA0A9B07C30DB0F0BD0000383B0000F0
:10199000034640000A4610B5400D0BD00121C9078F
:1019A0000F24A40200191C0364082143540D214391
:1019B000D20207E000210120F2E7D40F49002143C1
:1019C0005200401E0029F8DADB0FDB07184310BD78
:1019D000FFB50D46144685B04868516802F04BFECD
:1019E00000910190A868A16802F045FE0291039061
:1019F000A868616802F03FFE029A121882420292C1
:101A000001D2012000E00020019A0B18D218002812
:101A1000019202D08A4202D903E08A4201D2012017
:101A200000E000200099081800906868A16802F0A2
:101A300022FE029A12188242029201D2012000E094
:101A40000020019A0B18D2180028019202D08A4275
:101A500002D903E08A4201D2012000E0002000996F
:101A6000081800902868216840004900400849088B
:101A70004018FA49471814E001994000C90F08437B
:101A80000090019802994000C90F08430190029804
:101A900003994000C90F08430290039840007F1E3D
:101AA000039000980028E7DA0898002801D0EC4E4F
:101AB00000E00026B74201DA012000E00020002803
:101AC00004902AD0F71BF806C00E15D0029B2021E7
:101AD000091A039A8B401A430392029A019BC2404F
:101AE0008B401A430292019A009BC2408B4000999E
:101AF0001A430192C14000917B110DD06F46032023
:101B0000C11A03D500218200B95003E08A00810088
:101B1000BA587A50401EF3D53746039802990028E8
:101B200000D00120014308980291002808460CD0FB
:101B3000002800D001200199019A4905084301219C
:101B4000D20AC902D202019200E001210E9B0122B9
:101B5000D207012B02D0002B03D013E0002807D1BD
:101B600020E0904204D890420CD1019B0B4209D056
:101B7000019B5918019105D10099491C009101D18F
:101B80007F1C009200280DD0102108460020C0467E
:101B90000498002806D00F98002803D00821084692
:101BA0000020C04628682168019B009A4840C10F68
:101BB0000598C90739430EC009B0F0BDFFB587B01D
:101BC000099A089808995368926840688968964607
:101BD0000022039317469446089A12685300099A04
:101BE0005B081268520052089A1A9E4BD4180A9A3F
:101BF000002A01D0352200E0402206920022012373
:101C000015460492DB07059324E0002D05D17546A7
:101C10000346039E4D1BB34109D375466646039B9D
:101C2000491B049D9841059B7519AC465F4163466D
:101C30003B4308D0059B049EDD0776082E435B08D6
:101C40000496059301E0521E641EC50FED07491866
:101C50004041521C069B9A42D7DB002D04D17546A9
:101C6000039A6B1A824101D203200CE0039A0B46BF
:101C70006B404240134303D0014303D0012002E0F4
:101C8000022000E0002061460191002100970291AE
:101C90000A99002905D0614640020143704B019129
:101CA00002E08007002302909C4201DA012000E05C
:101CB000002007003AD01A1BD006C00E15D0029D96
:101CC0002021019C091AC5408C402543029C8C4070
:101CD00000D001242543019C0295009DC4408D4005
:101CE00000992C430194C140009154111DD06D46C0
:101CF0000221002202290CD10320001B07E000284A
:101D000004DB8600AE59002E00D00122401C0328BF
:101D1000F5DB081B02D588002A5004E08000285813
:101D200010438A00A850491EE3D51C460A98002893
:101D300002980CD0002800D001200199019A490591
:101D400008430121D20AC902D202019200E0012116
:101D5000109B0122D207012B02D0002B03D013E0ED
:101D6000002807D11FE0904204D890420CD1019B7B
:101D70000B4209D0019B5918019105D10099491CCA
:101D8000009101D1641C009200280CD0102108465B
:101D90000020C046002F06D01198002803D008214B
:101DA00008460020C04608980999019A009B0068DF
:101DB00009684840C10F0798C907214382600AC0DB
:101DC0000BB0F0BD00B585B0019300920A46014604
:101DD000002302A8FFF7FCFD02A807C805B000BD5C
:101DE000FFB50A461F4685B007990193012300916C
:101DF000014602A8FFF7ECFD02990398049ECA0F62
:101E00004900D20700920F22490892028C1A002141
:101E1000002800DB0C46450013486D08844214D3AB
:101E2000079A002A04DA441E0026104DF64302E009
:101E300004460D460E46102108460020C046002FDD
:101E400003D0042108460020C0462005E90A0843C3
:101E5000009908436905F20A1143ADE602C0FFFF8D
:101E6000013C0000FF3F0000FF070000FFFFFF7F75
:101E700000B585B0019300920A460146002302A8EE
:101E8000FFF79CFE02A807C8A8E7FFB50A461F4651
:101E900085B00799019301230091014602A8FFF73D
:101EA0008DFE02990398049ECA0F4900D207009242
:101EB0000F22490892028C1A0021002800DB0C46F0
:101EC000450011486D08844214D3079A002A04DAA9
:101ED000441E00260D4DF64302E004460D460E4614
:101EE000102108460020C046002F03D004210846D8
:101EF0000020C0462005E90A084300990843690507
:101F0000F20A114358E60000FF070000FFFFFF7FC1
:101F100010B50446C046C0462046FEF7AFF910BDD6
:101F2000C80212D54803400F002804D0C803C0439C
:101F3000012188407047EFF3008000010009032170
:101F40000907084380F300887047002070470000AD
:101F500010B5024800F05CF810BD00000000C07F22
:101F600082078B079A423FD170B5920F0AD00324A3
:101F700002780B78401C491C002A33D09A4231D198
:101F80002042F5D1214EF40104C808C9951B9543A0
:101F9000254018D19A420FD104C808C9951B954312
:101FA000254010D19A4207D104C808C9951B954312
:101FB000254008D19A42E7D012BA1BBA01209A42B2
:101FC00000D2404270BD12BA1BBA2DBA18241000BC
:101FD000E0401900E140401A05D12E00E64002D150
:101FE000083CF4D1D01A70BD02780B78401C491C13
:101FF000002A09D09A4207D102780B78401C491C6C
:10200000002A01D09A42EFD0D01A70470101010195
:1020100010B50C461107090F092904D00A290AD066
:1020200008290CD104E011460820FFF779FF06E0EB
:10203000510606D501E0510601D50120C007214611
:1020400010BDD10607D501010909CC084907000ECA
:102050000006044309E0410F20024907000A01433A
:10206000200E00061D22D14101430846E7E700008B
:1020700001491820ABBEFEE7260002007047811E12
:10208000091F00BFFCD2704784B0039002910192F7
:102090000398006800900098019988430090009888
:1020A0000299019A114008430399086004B07047EF
:1020B00082B001900091009B0199034A885818430F
:1020C000885002B07047C0464810000082B00190AE
:1020D00000910098019995225201885002B07047F2
:1020E00082B001900091009B0199C64A885818431C
:1020F000885002B07047C04682B0019000910098AD
:102100000199024A885002B07047C046D0120000C0
:1021100081B0009000990120C202C048885001B0EF
:102120007047C04610B584B0069C0390029101929E
:1021300000930298019908430099084306990843BF
:102140000349084303998900144A885004B010BD1C
:102150008100040081B00090009881000F4A812026
:10216000885001B07047C04682B00190009100983D
:102170000349084301998900084A885002B0704712
:102180008000040082B001900091009880210843F3
:1021900001998900014A885002B07047048042408A
:1021A00081B000900099B44AB448885001B070479B
:1021B00082B001900091009B0199034A885818430E
:1021C000885002B07047C0469013000082B0019062
:1021D000009100980199074A885002B07047C046A4
:1021E00082B00190009100980199024A885002B093
:1021F0007047C0469012000081B0014668460170E9
:102200000178302048430249405801B07047C04629
:102210000011404081B000900099AB4A88580123DA
:102220001843885001B0704781B000900099012098
:10223000C2027A48885001B07047C046B0B511223A
:10224000120283580C4C1C400B894D881D438B791E
:102250002B430A4D1D402B1983508B88CC791C438E
:10226000097821435D239B001940801842689A43F6
:1022700089184160B0BDC04680CCFFFF7F330000AD
:1022800081B0009000988D49405810210840000905
:1022900001B0704781B000900098884940580421EF
:1022A0000840800801B0704781B000900098024952
:1022B0004058C0B201B070473011000081B00090AA
:1022C00000996D4A6D48885001B0704780B582B062
:1022D000019000910198A04940180099024AFFF727
:1022E000D3FE02B080BDC046FF03000010B501223E
:1022F000120383180C785C604978815010BD00008F
:1023000080B584B000920A4601460098039102A964
:102310000A7001AA107003988A4BC01809781278C5
:1023200011433F22FFF7B0FE04B080BD82B00190A0
:10233000684601700078019945229201885002B0E8
:10234000704700001C49086801221203104308600E
:102350007047C04681B00146684601700078024966
:10236000086001B07047C04608030B4080B582B0DA
:10237000014601A8017001780F480F22FFF784FE83
:1023800002B080BD80B582B0014601A8017001781D
:1023900002480322FFF778FE02B080BD00010B4027
:1023A00080B582B0014601A8017001780248302250
:1023B000FFF76AFE02B080BD04010B4081B00090BF
:1023C000009911200202885801231843885001B057
:1023D000704781B0009000991120020288580123B3
:1023E0005B041843885001B07047000082B0019030
:1023F0000091009B0199034A88581843885002B005
:102400007047C0462810000081B00090009901205C
:10241000C2020248885001B07047C0460100002641
:10242000B0B51122120283580124A34383500B88B4
:102430008C781C438B882343094C1C408358094DDE
:102440001D40631983508B79CC791C43097A214351
:102450007E231940801842689A4351184160B0BDEC
:1024600018670000E798FDFF81B000900099024ACC
:102470000248885001B0704704080000030000B112
:1024800080B584B003900291019203980B494018E3
:1024900002990B4AFFF7F8FD03980A494018019981
:1024A0003F22FFF7F1FD0399074A88188958012256
:1024B0001140FFF7E9FD04B080BDC04610110000D7
:1024C000FFFF0000141100000411000010B50122EC
:1024D000120383180C789C604978815010BD80B538
:1024E00082B00190009101981121090240180099D1
:1024F0000322D203FFF7C8FD02B080BD80B584B0CF
:10250000019101460198039102A9087003980D4AB0
:10251000801809787022FFF7B7FD04B080BDC0466F
:1025200080B584B0019101460198039102A9087019
:102530000398044A801809780722FFF7A5FD04B024
:1025400080BDC0460C110000034A801802681206C4
:10255000FCD481617047C0460811000080B501209D
:10256000FFF74AFE012804D1FFE703490120087064
:1025700000E0FFE780BDC046C81E202080B50349AB
:10258000704801F033FFFFE7FEE7C046DE5400006D
:1025900080B588B0142002210291FFF7F3FD029963
:1025A0001520FFF7E1FD212003210391FFF7EAFD4C
:1025B00003992320FFF7E6FD03992220FFF7D4FDBE
:1025C0000022009201200590C30424201146FFF749
:1025D000A9FD0620FFF7BEFD58480690042104918E
:1025E000FFF7F4FD04990698FFF786FD0599069814
:1025F0008907FFF7DDFD05990698C9030791FFF7E5
:1026000057FD06980799FFF76BFD08B080BDC046DF
:1026100080B582B00B494C480190FFF767FE0198E6
:102620000949FFF70BFE01980021FFF74FFE0198C3
:1026300010210222FFF764FE0198FFF7EBFD02B0C4
:1026400080BDC046905400009254000080B582B016
:1026500000200190FFF77EFE0198FFF793FEFFF741
:1026600071FE0198FFF79CFE0198FFF77FFE02B014
:1026700080BD000080B582B0134932480190FFF759
:1026800025FF01981149FFF7CBFE01980021FFF7C4
:1026900026FF019811211722FFF7F2FE0198012170
:1026A0008902FFF7A3FE0198FFF793FE01987021BE
:1026B000FFF724FF01980721FFF732FF0198FFF78A
:1026C0007DFE02B080BDC0469C5400009E540000B8
:1026D00080B500F00FF8FFF75BFFFFF7B7FFFFF7DC
:1026E000C9FFFFF795FF024924220020885480BDCE
:1026F000B007202080B584B010480090FFF750FD4F
:102700000F480190FFF74CFD0E480290FFF7ACFE1A
:102710000D480390FFF7D2FD0098FFF7F9FC0198F0
:10272000FFF7F6FC0298FFF76FFE0398FFF77CFDBA
:102730001020FFF7A4FC04B080BDC04600000A4092
:1027400000200A40008010400080464081B00146D1
:102750006846017000214056002809D4FFE768460A
:1027600001781F2001400120884002490860FFE7EE
:1027700001B0704700E100E080B582B0019001989F
:10278000002801D1FFE70BE0FFE70198411E01910E
:10279000002805D0FFE77D200002FFF770FCF4E77A
:1027A00002B080BD80B584B003900398002801D1A9
:1027B000FFE708E003994801C90E019100900098D5
:1027C000FFF75DFCFFE704B080BD000080B584B07A
:1027D0000290029800F0D6FC01A90020087002982F
:1027E00000F076FE002805D4FFE701A8007847280E
:1027F00004D0FFE70220C04303903BE002981F494A
:1028000009780F2200F088FE002804D5FFE7032096
:10281000C04303902EE00298002100F0CFFC002876
:1028200004D5FFE70420C043039023E00298002171
:1028300000F0D4FD002804D5FFE70520C043039035
:1028400018E002980022114600F052FD002804D53D
:10285000FFE70620C04303900CE0029800F010F858
:10286000002804D5FFE70720C043039002E00120C1
:102870000390FFE7039804B080BDC0460A00202003
:1028800080B588B006900698AD21405C05A9087017
:102890000698032100F0A2FD002804D5FFE70020E0
:1028A000C043079063E000200490039002900190E1
:1028B000FFE70198C0087C283ED8FFE7069800F0A3
:1028C00019FB0699486EC822895802F0BBFB2949BA
:1028D0000091FDF773FE0146029802F0B3FB0290EF
:1028E0000699886ECC22895802F0ACFB0099FDF75E
:1028F00065FE0146039802F0A5FB03900699C86E99
:10290000D022895802F09EFB0099FDF757FE014640
:10291000049802F097FB049006988068002806D07F
:10292000FFE7069881687D20C0008847FFE7FFE742
:102930000198401C0190BCE702980699C822885073
:1029400003980699CC22885004980699D022885082
:10295000069805A9097800F041FD002804D5FFE795
:102960000320C043079002E001200790FFE707988B
:1029700008B080BD00007A4480B584B0029002980F
:102980001F4909781B2200F0C7FD002804D5FFE786
:102990000020C04303902FE002981A4909780122D1
:1029A00001AB00F0C3FB002804D5FFE70120C043C2
:1029B000039021E001AA1078EF21084010700298DE
:1029C00010490978127800F0A7FD002804D5FFE728
:1029D0000220C04303900FE002980B4909781822A7
:1029E00000F09AFD002804D5FFE70320C0430390C0
:1029F00002E001200390FFE7039804B080BDC046C9
:102A000007002020080020200900202070B588B091
:102A100001920A460199069005A8027004AA117055
:102A200003A90B700378069C01210B40D425635544
:102A30001278069B0A40D5241A55069AD623D154FB
:102A400001780020C9070029029003D0FFE704980D
:102A50000290FFE70299069A01200140D723D15442
:102A600005A90978C9070029009003D1FFE7049858
:102A70000090FFE70099069A01242140D8201154C4
:102A8000069D285C2040D4216E5C26400622134619
:102A90007343C018D523EE5C264072438018D622BB
:102AA000AE5C26408019D726AE5DF607B60F8019BA
:102AB000E026A8510698415C2140C35CDB079B0FD0
:102AC000C918825CD207520F8A185F2100F024FDDA
:102AD000002804D5FFE70120C043079002E0012051
:102AE0000790FFE7079808B070BD000080B584B07C
:102AF0000390029101920398EC4BC0580299086030
:102B00000198039A1146E431D2589200FDF7BCFBBC
:102B100004B080BD80B584B0039002910192039807
:102B2000E24BC058029908600198039AB9218900C4
:102B30005118D2589200FDF7A7FB04B080BDC046E3
:102B400080B584B00390029101920398D74BC0588E
:102B5000029908600198039AD3495118D2589200FB
:102B6000FDF792FB04B080BD80B584B00390029164
:102B700001920398D24BC058029908600198039AB9
:102B8000DD21C9005118D2589200FDF77DFB04B039
:102B900080BDC04680B584B0039002910192039835
:102BA000C74BC058029908600198039AC24951184E
:102BB000D2589200FDF768FB04B080BD80B584B0A8
:102BC0000390029101920398BD4BC058029908608E
:102BD0000198039AB9495118D2589200FDF754FB55
:102BE00004B080BD10B59CB01A901A98AC49097811
:102BF00003461033022200F099FA1A9A107C00075B
:102C0000000D517C4118DC2011501A990858E0221F
:102C1000895801F035FC19900123189318981A99D6
:102C2000D4228C5C1C4006210A466243801817900F
:102C300017981A9AD524125D1A40514340181690DD
:102C400000201590FFE715981999884200D321E1DB
:102C50001A9894490978E022825C0346103300F008
:102C600065FA002804D5FFE70020C0431B9014E15B
:102C70001A98D421405CC007002876D0FFE71A9844
:102C800018994118087C0002497C411813A80C903F
:102C900001801A99189A8A18917C0902D27C8918A5
:102CA00041801A99189A8A18117D0902527D891853
:102CB00081800021405EFDF77BFD1A9A0992A421D4
:102CC0000D915158B023D258089202F055FA089944
:102CD00002F0B6FA0999BC22895802F04DFA099A15
:102CE00001460C98159B9B00D218E423D150022179
:102CF000405EFDF75DFD0D991A9A0B925158B42371
:102D0000D2580A9202F038FA0A9902F099FA0B990D
:102D1000C022895802F030FA0B9A01460C98159B94
:102D20009B00D218B9239B00D1500421405EFDF7CF
:102D30003FFD0D991A9A0F925158B823D2580E920E
:102D400002F01AFA0E9902F07BFA0F99C422895800
:102D500002F012FA0F99159A92008918524A885077
:102D600019981A99514A8850FFE71A98D621405C61
:102D7000C00700281BD0FFE71A9816994018017C5D
:102D800012A8017000214056FDF712FDAB49FDF776
:102D900015FCAB4902F056F91A99159A9200891858
:102DA000434A885019981A99424A8850FFE71A985E
:102DB000D521405CC007002867D0FFE71A98179913
:102DC0004118087C0002497C411810A80490018039
:102DD0001A99179A8A18917C0902D27C8918418025
:102DE0001A99179A8A18117D0902527D89188180D3
:102DF0000021405EFDF7DCFC1A9A0192A8210591A2
:102E00005158C823D258009202F0B6F9009902F046
:102E100017FA019A01460498159B9B00D218DD23EE
:102E2000DB00D1500221405EFDF7C2FC05991A9AE1
:102E300003925158CC23D258029202F09DF9029984
:102E400002F0FEF9039A01460498159B9B00D218E4
:102E5000194BD1500421405EFDF7AAFC05991A9A3E
:102E600007925158D023D258069202F085F906995C
:102E700002F0E6F90799159A920089180F4A8850CE
:102E800019981A990E4A8850FFE7FFE71598401CD9
:102E90001590D8E601201B90FFE71B981CB010BDD1
:102EA0000400202005002020E4040000E4060000C7
:102EB000EC0C0000EC100000E8080000E80A00003C
:102EC000E80C000080B582B00090009808490978AD
:102ED000402200F021FB002804D5FFE70120C04379
:102EE000019002E001200190FFE7019802B080BD4F
:102EF0000300202080B592B01090109800F0A2F846
:102F0000002804D5FFE70020C043119093E01098FB
:102F100001907021405EFDF74BFC4849FDF74EFBE8
:102F2000474902F08FF80199486510980390722183
:102F3000405EFDF73DFC039AA42106915158B02351
:102F4000D258029202F018F9029902F079F9039925
:102F5000BC22895802F010F90399886510980590F1
:102F60007421405EFDF724FC059A06995158B4235C
:102F7000D258049202F000F9049902F061F905991F
:102F8000C022895802F0F8F80599C8651098089091
:102F90007621405EFDF70CFC0699089A5158B8233B
:102FA000D258079202F0E8F8079902F049F9089917
:102FB000C422895802F0E0F80899086610980A902F
:102FC0007821405EFDF7F4FB0A9AA8210D91515833
:102FD000C823D258099202F0CFF8099902F030F9CB
:102FE0000A99486610980C907A21405EFDF7E0FB44
:102FF0000C9A0D995158CC23D2580B9202F0BCF880
:103000000B9902F01DF90C99886610980F907C219D
:10301000405EFDF7CDFB0D990F9A5158D023D25841
:103020000E9202F0A9F80E9902F00AF90F99C866FB
:1030300001201190FFE7119812B080BDE17A04439E
:103040000000C84180B588B00690069823490978E9
:10305000034610330E2200F069F8002804D5FFE77C
:103060000020C043079035E000200190FFE7019861
:1030700006280FD8FFE7069801994A008118087CB6
:103080000002497C401802A98852FFE70198401CC1
:103090000190ECE7029806997022885202A84188B4
:1030A000069A7223D1520399069A7423D152C18889
:1030B000069A7623D1520499069A7823D1524089F0
:1030C00006997A228852059806997C228852012016
:1030D0000790FFE7079808B080BDC0460B0020208E
:1030E00010B584B0069C039002910192009303985E
:1030F0000D49FDF737F90298039908600198039983
:10310000486000980399886006980399C8600399FD
:103110007F20C005BC2288500399C02288500399A3
:10312000C422885004B010BDF010000010B588B063
:10313000069005A8017004A8027003930698006821
:10314000002804D1FFE70020C043079016E006984E
:103150000468C06805A90978039A04AB1B78A047E6
:10316000029002990020C0430090012000290190A4
:1031700001D00098019001980790FFE7079808B0E8
:1031800010BD000080B582B001900198002100F0D0
:103190008BF8019808490978012200F0BDF90198DF
:1031A0008068002806D0FFE7019881687D20C00074
:1031B0008847FFE702B080BD0200202080B586B0BE
:1031C000049003A801700498002100F06DF80498A1
:1031D00034490978012202ABFFF7A8FF002804D583
:1031E000FFE70020C04305902CE00398400102AAAD
:1031F00011781F2319404018107004982949097844
:10320000127800F089F9002804D5FFE70120C043B7
:10321000059017E003A801780420411A01200190CD
:103220008840FDF7C5FA0721C90601F0A5FF014650
:103230000198049AA423D1500399049AAC23D15441
:103240000590FFE7059806B080BDC04680B584B004
:10325000029001A801700298002100F025F8029860
:103260001049097801226B46FFF760FF002804D55A
:10327000FFE70020C043039011E001986A461178EF
:10328000F023194008431070029806490978127813
:1032900000F042F9C017012148400390FFE703986E
:1032A00004B080BD0100202080B584B000910146AB
:1032B0000098029101A9087002985022805C097858
:1032C000884203D1FFE7012003900CE001980299A6
:1032D0005022885402980549097801AA127800F012
:1032E0001BF90390FFE7039804B080BD0000202085
:1032F00080B584B0029001A80170684602700298FF
:103300000121FFF7D1FF002804D5FFE70020C043CB
:1033100003905CE001A80078C00700280ED0FFE70A
:1033200002982C490978002200F0F6F8002804D50C
:10333000FFE70120C043039049E00DE002982549D2
:103340000978032200F0E8F8002804D5FFE70220FE
:10335000C04303903BE0FFE702980221FFF7A4FF80
:10336000002804D5FFE70320C04303902FE0684600
:103370000078C00700280ED0FFE7029816490978A8
:10338000002200F0C9F8002804D5FFE70420C0435C
:1033900003901CE00DE002980F490978012200F02B
:1033A000BBF8002804D5FFE70520C04303900EE0DA
:1033B000FFE702980021FFF777FF002804D5FFE719
:1033C0000620C043039002E001200390FFE703982A
:1033D00004B080BD0D0020200E00202080B586B0F6
:1033E000049003A8017004980021FFF75DFF049882
:1033F00036490978012202ABFFF798FE002804D570
:10340000FFE70020C04305902EE00398400102AA88
:1034100011781F2319404018107004982B4909781F
:10342000127800F079F8002804D5FFE70120C043A6
:10343000059019E003A80178012001908840FDF76C
:10344000B7F901460A48FDF7B9F80721C90601F0A6
:1034500093FE01460198049AA823D1500399049A37
:10346000AD23D1540590FFE7059806B080BDC04656
:103470000000FA4480B584B0029001A8017002985F
:103480000021FFF711FF02981049097801226B46CD
:10349000FFF74CFE002804D5FFE70020C04303904F
:1034A00011E001986A461178F02319400843107022
:1034B000029806490978127800F02EF8C017012109
:1034C00048400390FFE7039804B080BD0600202029
:1034D00080B584B00290019102980021FFF7E4FECC
:1034E00002980C490978034610330122FFF71EFEAB
:1034F000002804D5FFE70020C043039006E00298AF
:10350000007C0199087001200390FFE7039804B044
:1035100080BDC0460C00202010B58CB00A9009A8D0
:10352000017008A802700A984068002804D1FFE7DB
:103530000020C0430B9036E00A984468C06809A98F
:10354000097808AA0123A04707900798002804D00B
:10355000FFE70020C0430B9025E00A988068002810
:1035600005D0FFE70A98816810488847FFE706AB57
:1035700001930020029018700A9809A90978012285
:103580000392FFF7D3FD0199029B0398097808AADB
:103590001278DB4304939142059001D00498059082
:1035A00005980B90FFE70B980CB010BD102700009A
:1035B00080B584B0039003983F21090601F0DCFD3B
:1035C000029003980190019841080C48401A01901C
:1035D00002980199009101F0CFFD009901F0CCFD16
:1035E0000146FF20800501F02BFE0146009801F006
:1035F000C3FD0190019804B080BDC046DF59375F1C
:1036000010B590B0129C0F900E910D920C930C98E7
:10361000002804D0FFE70E98002801D1FFE75BE007
:10362000002004900B900A90099008900790069053
:103630000F9908610F9948610F9988610590FFE71C
:1036400005980C99884225D2FFE70E9B08A807A988
:1036500006AA984708990B9801F0F4FC0B9007997B
:103660000A9801F0EFFC0A900699099801F0EAFC2B
:1036700009900D98002808D0FFE71298002804D080
:10368000FFE70D9912988847FFE7FFE70598401C70
:103690000590D5E70B9801900C98FDF791F801463D
:1036A0000198FCF78BFF0F9908610A9802900C981B
:1036B000FDF786F801460298FCF780FF0F994861F4
:1036C000099803900C98FDF77BF801460398FCF7E6
:1036D00075FF0F998861FFE710B010BD80B59AB0F3
:1036E00019901891179216931998006815901998C7
:1036F000406814901998806813901998C0681290C7
:103700001598079014980A9013980990129901F04F
:1037100033FD0A9902460798089201F02DFD089999
:1037200001F090FC0146084601F08CFC09990C90D0
:10373000084601F021FD0A990B90084601F01CFD96
:103740000B9901F07FFC0146084601F07BFC014625
:103750007F20C005109001F073FD01460C9801F028
:1037600063F93D4901F008FD3C49FCF727FF189932
:10377000086015980E9013980D901298149901F006
:10378000FBFC0D9902460E980F9201F0F5FC0F9983
:1037900001F056FD0146084601F054FC10991190C5
:1037A000119801F0A2F8002804D1FFE717992E48DC
:1037B000086017E011982A4901F07FF8002804D129
:1037C000FFE71799274808600BE0119801F0A0F86F
:1037D000214901F0D1FC2149FCF7F0FE179908605E
:1037E000FFE7FFE71598019012980390149813993A
:1037F000049101F0C1FC039902460198029201F084
:10380000BBFC029901F01EFC0146084601F01AFCBF
:1038100003990690084601F0AFFC0499059008460C
:1038200001F0AAFC059901F00DFC0146084601F0E3
:1038300009FC01467F20C00501F002FD0146069803
:1038400001F0F2F8044901F097FC0449FCF7B6FED8
:10385000169908601AB080BD00003443DB0F494060
:10386000000080BF0000B4C20000B44210B5A8B090
:10387000279026912592249327997F20C00588625E
:1038800027998848C86227993022012002908854DD
:103890002799854848632799844888632799002099
:1038A0000490C8632799C8612799086227994862DC
:1038B0002799086127994861279988612499259853
:1038C00001F0B2F82390269803902598009024994F
:1038D000084601F051FC00990190084601F04CFCAB
:1038E000019901F0AFFB01F06BFB029A01460398CE
:1038F000D207504001F098F801460498229101F057
:10390000E1F901460498219101F098FA209022985B
:103910003F210906059101F02FFC01F0D3F905992B
:103920001F90229801F028FC01F088FA05991E905A
:10393000239801F021FC01F0C5F905991D90239809
:1039400001F01AFC01F07AFA1C901D981F9901F001
:1039500013FC0790219806901C981E9901F00CFC0E
:10396000209901F009FC069902460798089201F097
:1039700003FC089901F066FB279908601C981F99C1
:1039800001F0FAFB0A90219809901D981E9901F008
:10399000F3FB209901F0F0FB099902460A980B927B
:1039A00001F0EAFB0B9901F04BFC279948601D9848
:1039B0001E9901F0E1FB0D9021980C901C981F9925
:1039C00001F0DAFB209901F0D7FB0C9902460D9823
:1039D0000E9201F0D1FB0E9901F034FB279988601B
:1039E0001D981F9901F0C8FB109020980F901C980B
:1039F0001E9901F0C1FB219901F0BEFB0F9902460F
:103A00001098119201F0B8FB119901F019FC279957
:103A1000C86027981590016812914168084601F026
:103A2000ABFB12991390084601F0A6FB139901F025
:103A300009FB0146159814918168084601F09CFB2A
:103A4000149901F0FFFA014615981691C1680846CD
:103A500001F092FB169901F0F5FAFFF7A9FD1B9012
:103A60001B9927981790006801F086FB179908604A
:103A70001B9927981890406801F07EFB18994860C0
:103A80001B9927981990806801F076FB1999886036
:103A90001B9927981A90C06801F06EFB1A99C860AC
:103AA00028B010BD0AD7233C9A99193E0AE81C4158
:103AB00010B5E2B0679C669C659C649C61906091C7
:103AC0005F925E9364986199096901F0B9FB5D901A
:103AD00065986199496901F0B3FB5C9066986199BA
:103AE000896901F0ADFB5B906198806A5A9060989B
:103AF00042905F99084601F03FFB42994390084687
:103B000001F03AFB439901F09DFA44905E99084612
:103B100001F032FB449901F095FA599059988C497B
:103B200000F0D6FE002800D066E15998FFF740FD6E
:103B3000589061983021405CC00700283AD0FFE7D8
:103B40005998589901F018FB579057986199896BCB
:103B5000419101F075FB41990122D2079043FCF796
:103B60002DFD569056986199496BFCF727FD01464B
:103B70007F20C00501F064FB55905598002100F0AE
:103B800091FE002803D1FFE700205590FFE75598EC
:103B90006199C8636198806A409055986D4901F0B9
:103BA000EBFA6D4901F04EFA0146409801F0E4FA53
:103BB0005A90FFE75899609801F0DEFA60905899A2
:103BC0005F9801F0D9FA5F9058995E9801F0D4FAA5
:103BD0005E90619800685490619840685390619835
:103BE000806852906198C068519053982E90519877
:103BF0002D905498529901F0BFFA2D9902462E98B3
:103C00002F9201F0B9FA2F9901F01AFB01460846EC
:103C100001F018FA5090549831905398309052987F
:103C2000519901F0A9FA309902463198329201F087
:103C3000A3FA329901F006FA0146084601F002FAA9
:103C40004F90549833905399084601F095FA339960
:103C50003490084601F090FA349901F0F1FA359069
:103C60005299084601F088FA0146359801F0E8FAC1
:103C700036905199084601F07FFA369901F0E2F941
:103C80004E905F9838904E9837905E984F9901F01B
:103C900073FA379902463898399201F06DFA3999DA
:103CA00001F0CEFA4D905E983B9050983A90609813
:103CB0004E9901F061FA3A9902463B983C9201F024
:103CC0005BFA3C9901F0BCFA4C9060983E904F989A
:103CD0003D905F98509901F04FFA3D9902463E9809
:103CE0003F9201F049FA3F9901F0AAFA4B9061988E
:103CF000C06A002100F0ECFD00282FD1FFE74D98AD
:103D00006799619A2892D269279201F035FA27992A
:103D100001F098F92899C8614C986799619A2A929C
:103D2000126A299201F028FA299901F08BF92A994F
:103D300008624B986799619A2C92526A2B9201F013
:103D40001BFA2B9901F07EF92C9948620EE0C046CF
:103D5000BD3786356666663FCDCCCC3D6199002087
:103D6000C8616199086261994862FFE75A981F909B
:103D70004D981E906199C86AC96901F0FDF91E99B4
:103D800002461F98209201F0F7F9209901F05AF9A4
:103D900001465D9801F056F95D905A9822904C9832
:103DA00021906199C86A096A01F0E6F921990246F1
:103DB0002298239201F0E0F9239901F043F901469A
:103DC0005C9801F03FF95C905A9825904B982490AC
:103DD0006199C86A496A01F0CFF924990246259889
:103DE000269201F0C9F9269901F02CF901465B9859
:103DF00001F028F95B90FFE7619800684A906198AC
:103E0000406849906198806848906198C068479080
:103E100067983F21090601F0AFF946904A9805904E
:103E200049980121C907484002905D98019048983F
:103E30005C9901F0A1F9019902460298039201F000
:103E40009BF9039901F0FCF9049047985B9901F004
:103E500093F90146049801F0F3F9469901F08CF9C1
:103E60000146059801F0EEF86199086049980A90BA
:103E70004A9807905D98069048985B9901F07CF904
:103E8000069902460798089201F076F9089901F020
:103E9000D9F8099047985C9901F06EF901460998A4
:103EA00001F0CEF9469901F067F901460A9801F050
:103EB000C9F86199486048980F904A980C905C98AE
:103EC0000B9049985B9901F057F90B9902460C98B1
:103ED0000D9201F051F90D9901F0B2F90E90479849
:103EE0005D9901F049F90E9901F0ACF8469901F09D
:103EF00043F901460F9801F0A5F861998860479849
:103F000014904A9811905B98109049985C9901F030
:103F100033F9109902461198129201F02DF9129975
:103F200001F090F8139048985D9901F025F9014649
:103F3000139801F085F9469901F01EF9014614988D
:103F400001F080F86199C860619818900168159136
:103F50004168084601F010F915991690084601F0DD
:103F60000BF9169901F06EF80146189817918168BF
:103F7000084601F001F9179901F064F80146189814
:103F80001991C168084601F0F7F8199901F05AF83B
:103F9000FFF70EFB4590459961981A90006801F073
:103FA000EBF81A990860459961981B90406801F0F8
:103FB000E3F81B994860459961981C90806801F06E
:103FC000DBF81C998860459961981D90C06801F0E4
:103FD000D3F81D99C86062B010BD000070B5A6B0DE
:103FE00000202590FEF774FB0120FEF7AFFBC820F0
:103FF000FEF7C2FB91480090B9481E909049914A43
:10400000914BFFF76DF81E98FEF7E0FB002806D5F0
:10401000FFE7A0498E4800F0E9F9FFE7FEE78B498A
:104020008B481B9000F0E2F9AD481C9008211691D6
:10403000FFF70CF916991C98FFF71CFA1C98FEF76D
:1040400059FF1C98806D8349179101F095F81799D5
:1040500002461C981892C06D01F08EF8179902461E
:104060001C981992006E01F087F81899199A034666
:1040700079481A90FFF7FAFB1B98784900F0B6F9D7
:104080001A98052100917649764A7D23DB00FFF7D7
:10409000B7FA1B98744900F0A9F91C980122002373
:1040A0001D931146FEF7B2FC1C98FEF70BFF1C98FF
:1040B000FEF762FC1D986D490870FFE76B480078B9
:1040C000C007002800D1B8E0684900200870844883
:1040D000FEF788FD012800DAAEE081481490644ABA
:1040E00024A91591FEF702FD14981599614AFEF76F
:1040F00011FD14981599604AFEF722FD1498159940
:104100005E4AFEF731FD149815995D4AFEF742FDAF
:10411000149815995B4AFEF751FD00202390FFE7A4
:1041200023982499884265D2FFE723988100129151
:104130004F48405810904F484158084601F01CF82D
:1041400010991190084601F017F8119900F07AFFC4
:104150001299139048484158084601F00DF81399F8
:1041600000F070FF22902298484900F0B1FB00282F
:104170003BD1FFE7239881000A913D4840583549DB
:10418000099100F0F9FF09990A9A0C903948805872
:1041900000F0F2FF09990A9A0D903748805800F014
:1041A000EBFF0A990E90354840584E490B9100F0AC
:1041B000E3FF0A9A0B990F903148805800F0DCFF1A
:1041C0000A9A0B9904462F48805800F0D5FF0C99A5
:1041D0000D9A0E9B05460F982D4E0396029501945D
:1041E00000901D48FFF764FCFFE7FFE72398401CA1
:1041F000239095E7184821A920AA1FABFFF76EFA74
:104200002198FCF7B1F9059006912098FCF7ACF9DC
:10421000079008911F98FCF7A7F9059A069B04469A
:1042200007980D460899039502940191009016494C
:10423000074800F0DBF8FFE7FFE73FE70080464074
:10424000E942000049430000A5270000EB540000AC
:10425000008010400AE81C4170002020105500002A
:104260009942000079270000CA540000C81E20208F
:10427000B0002020B0022020B0042020D807202049
:10428000D8092020D80B20202D5500006F12833A2A
:104290000AD7233CA854000080B586B0059004914D
:1042A00003920F480290FEF725FE0298406E0D49DA
:1042B000019100F061FF019902460298059B1A6086
:1042C000806E00F059FF019902460298049B1A6023
:1042D000C06E00F051FF0399086006B080BDC04673
:1042E000D80D202035FA8E3C10B588B0079006A86E
:1042F0000190017005920493079803902A480421C5
:10430000FDF7E4FE0199039809788022114300F03B
:104310004DF800200290FFE70298049988420CD2E1
:10432000FFE70398002100F041F80599029A8854AC
:10433000FFE70298401C0290EEE71B480421FDF7BE
:104340004FFF002008B010BD10B588B0079006A838
:10435000019001700592049307980390124804217C
:10436000FDF7B4FE0199039809787F22114000F00F
:104370001DF800200290FFE70298049988420BD2B2
:10438000FFE703980599029A895C00F00FF8FFE7B0
:104390000298401C0290EFE703480421FDF720FF3C
:1043A000002008B010BDC04600000A4080B582B0B1
:1043B000019068460170FFE70198FDF761FF002852
:1043C00001D0FFE7F8E7019869460978FDF7AEFFED
:1043D000FFE70198FDF75EFF002801D0FFE7F8E74F
:1043E0000198FDF761FF02B080BD000082B080B58A
:1043F00086B0099308920590049108A80390049A46
:10440000039B114801210902FBF770FF02900298FB
:10441000002801D5FFE711E00298FF2803DDFFE740
:10442000FF20009002E002980090FFE700980190C2
:104430000598019A044900F009F8FFE706B080BC2E
:1044400001BC02B086467047B006202080B584B01B
:1044500003900291019200200090FFE700980199DB
:1044600088420BD2FFE703980299009A895CFEF715
:104470006BF8FFE70098401C0090EFE704B080BDA8
:1044800043088B421AD3002203098B4279D3030AD3
:104490008B425ED3030B8B4242D3030C8B4227D358
:1044A0000902FF2212BA030C8B4202D31212090234
:1044B00003D0030B8B4233D31AE0D3E0411A80417F
:1044C000401C704703460B4371D443088B42F5D31D
:1044D000002203098B4254D3030A8B4239D3030BC6
:1044E0008B421DD3030C8B4202D394466EE0090A23
:1044F000C30B8B4201D3CB03C01A5241830B8B42B7
:1045000001D38B03C01A5241430B8B4201D34B039F
:10451000C01A5241030B8B4201D30B03C01A524104
:10452000C30A8B4201D3CB02C01A5241830A8B4289
:1045300001D38B02C01A5241430A8B4201D34B0272
:10454000C01A5241030A8B4201D30B02C01A5241D6
:10455000CDD2C3098B4201D3CB01C01A524183098A
:104560008B4201D38B01C01A524143098B4201D3C4
:104570004B01C01A524103098B4201D30B01C01AEF
:104580005241C3088B4201D3CB00C01A5241830869
:104590008B4201D38B00C01A524143088B4201D396
:1045A0004B00C01A5241411A524110007047CA0FC5
:1045B00000D04942031000D34042534000229C46A1
:1045C00003098B422DD3030A8B4212D38901FC22AB
:1045D00012BA030A8B420CD3890192118B4208D381
:1045E000890192118B4204D3890137D0921100E0E6
:1045F0008909C3098B4201D3CB01C01A52418309F7
:104600008B4201D38B01C01A524143098B4201D323
:104610004B01C01A524103098B4201D30B01C01A4E
:104620005241C3088B4201D3CB00C01A52418308C8
:104630008B4201D38B00C01A5241D9D243088B421E
:1046400001D34B00C01A5241411A00D201465241D7
:10465000104663465B1000D34042704763465B10D0
:1046600000D3404201B50021004201D0C9430846B1
:10467000C046C04602BDF8B5040C8BB2264682B2D5
:104680005E43104658430D0C370C36040021801948
:10469000164679416E43370C360480192646794117
:1046A0006E438919F8BD00004900CA020243100098
:1046B00000D004204A0D01D001221043044A490DC4
:1046C000914201D102210843012800D10520704701
:1046D000FF0700004100080200D004200A0E01D0AC
:1046E00001221043090EFF2901D1022108430128AC
:1046F00000D10520704710B50121FCF759FB10BD12
:1047000010B500F09FFC10BD10B500210846FBF766
:1047100055FF10BD5E2110B5C9430807FCF748FBE3
:1047200010BD0000F0B50E4614465100FF221206DF
:1047300087B0914203D31116316007B0F0BD01205C
:104740002502C0070543E00D7838C206D20E2020AE
:10475000871A6000000E7838401181004D48784477
:104760000B189C464358002A14D06046406893407A
:104770000146F84003436046806891408646F84011
:104780000143039160467146C0689140F84001437F
:104790000F4603E060464168039187681846294642
:1047A000FFF769FF0291049029460398FFF763FF22
:1047B0000391069038462946FFF75DFF0F4606989D
:1047C000029B3D18049A0399BD4201D2012700E0E3
:1047D00000278818C019002F02D0884202D903E0B0
:1047E000884201D2012100E0002159180A462032F6
:1047F0009709C20C890652034003376011430190A8
:104800000846FBF7D5FF02900198FBF7D9FF12216C
:10481000C943FCF7CDFA01902846FBF7D1FF2521CB
:10482000C943FCF7C5FA00900199029800F00AFC10
:10483000009900F007FC0121C9024018050B2D0367
:104840002846029900F0FCFC019900F0F9FC00995F
:1048500000F0EAFC104900F08FFC00900F49284658
:1048600000F08AFC009900F0EDFB00900C4928460E
:1048700000F082FC009900F0E5FB002C00DB5CE717
:1048800001210907C91B31600121C907484007B050
:10489000F0BD0000520C0000DB0FC92F22AAFD2939
:1048A0000000C92F10B500F013FCEFF3008080006A
:1048B00001D5012010BD002010BD10B500F008FC8E
:1048C000EFF300804000800F012800D0002010BDD1
:1048D00010B500F027FCEFF300804000800F0128A6
:1048E00001D0012010BD002010BD10B500F01AFC51
:1048F000EFF30080800001D4012010BD002010BD26
:1049000030380A2801D2012070470020704700008B
:10491000F8B504464721400049060D224118120609
:10492000914253D83F21490688421BD960007F211C
:104930004008C90500F078FC0021C943FCF738FAAB
:10494000074600F03DFB002C04DA2F4D2D4EA90741
:10495000484001E02D4E2E4D0321890700F00CFC4C
:10496000044606E0002621463546084600F004FCD1
:1049700007462849384600F0FFFB274900F062FB54
:10498000394600F0F9FB254900F05CFB394600F0A0
:10499000F3FB234900F056FB394600F0EDFB2149BB
:1049A00000F050FB00903946204600F0E5FB0099EE
:1049B00000F0E2FB07462946204600F043FB39465B
:1049C00000F040FB314600F03DFBF8BD39214906BF
:1049D000884208D22046FFF77DFE042801D1FFF768
:1049E00099FE2046F8BDFF210906884203D92046DA
:1049F000FFF781FEF8BD0120FBF7EAFEFFF784FE1A
:104A0000F8BD00000000C9BF22AAFDB90000C93FDF
:104A100022AAFD3924FE1C3DC78AD83C1E67383DBA
:104A20001B93993DAFAA2A3EF0B50C4601461D22C4
:104A30004B00D2069F18E52605463606620087B071
:104A40002046B7427BD21D27FF06D719B74276D240
:104A50004F0043003E0E1A0EB21A1B2A07DD002932
:104A600002DA854807B0F0BD844807B0F0BD1A26C9
:104A7000F2422FDA002807DA002902DA804807B06C
:104A8000F0BD804807B0F0BD21462846FBF796FDF3
:104A90000646FFF71FFE042801D1FFF73BFE28461C
:104AA000FFF718FE05462046FFF714FE0446304681
:104AB000FFF710FE042D01D0052D08D1042C01D0E4
:104AC000052C04D1002802D10220FBF781FE3046DC
:104AD00007B0F0BD9F4211D9002902DA6A4F6B4E30
:104AE00001E06B4F6B4E23462C461D4601220346C8
:104AF000D20708465440504019460BE0002807DA18
:104B0000002902DA644F654E04E0654F654E01E00E
:104B100000263746421A012352001B069A422FD222
:104B2000484061490CD5BF2000060290384600F08D
:104B300087FB07465D49304600F082FB0BE053E0FF
:104B40003F2000060290384600F07CFA074657499D
:104B5000304600F077FA06462846029900F00CFB32
:104B6000214600F06FFA00902146029800F004FB05
:104B7000294600F059FB0099FBF720FD044604E0AC
:104B800021462846FBF71AFD0446014600F0F4FAD8
:104B90004749009000F0F0FA464900F053FA0099B6
:104BA00000F0EAFA444900F04DFA009900F0E4FA06
:104BB000424900F047FA009900F0DEFA404900F05F
:104BC00041FA05462046009900F0D6FA294600F041
:104BD000D3FA314600F036FA214600F033FA39466E
:104BE00000F030FA07B0F0BDFF263606B34201D818
:104BF000B24205D901462846FFF782FD07B0F0BD55
:104C00002F4607437F000AD0B3420CD1B2420AD1EB
:104C100001229207904391430D46044618E7FF2274
:104C2000D2051043F9E7B3420CD047000AD0B24294
:104C30000ED04E000CD05340F0D4002A0EDB9F263D
:104C4000F6050DE0FF22D2051143E00FC007FFE695
:104C5000C90FC907FF22D2051043F9E65F26F60502
:104C60003146284600F088FA05463146204600F0D5
:104C700083FA04462946EBE6DB0FC9BFDB0FC93FC9
:104C8000DB0F49C0DB0F49400000C9BF22AAFDB9B4
:104C90000000C93F22AAFD39000049C022AA7DBAFE
:104CA0000000494022AA7D3A0060ED3EC30ACE379B
:104CB0002DAD65BD8FB8D53D0FB511BE61C84C3E59
:104CC000A8AAAABEF0B5024604464E4B83B04000E7
:104CD0006946984209D273210906884202D200200F
:104CE000C04300E00020009030E05000464B4008F8
:104CF00098426CD24549104600F03EFAFCF718F88D
:104D00000746FBF70BFD8007800F009040493846AF
:104D100000F032FA01903F49384600F02DFA06467D
:104D20003D49384600F028FA05463C49384600F02F
:104D300023FA214600F078FA294600F081FA31463C
:104D400000F07EFA019900F07BFA044625467F27A1
:104D5000009CFF05002C3EDBE007314E294608464B
:104D60001BD000F009FA07462E4900F005FA2E493B
:104D700000F068F9394600F0FFF92C4900F062F9BB
:104D8000394600F0F9F9294600F0F6F9294600F015
:104D900059F9A10718D503B0F0BD00F0EDF90546AB
:104DA000234900F0E9F9234900F04CF9294600F0C5
:104DB000E3F9214900F046F9294600F0DDF93946CA
:104DC00000F040F9A107E6D5704003B0F0BD1046F1
:104DD000FFF7A8FCB9E7FF2168000906884202D264
:104DE000384603B0F0BD884206D10120FBF7F0FC45
:104DF000FFF78AFC03B0F0BD2846FFF77CFC03B048
:104E0000F0BD0000B61F927E490E494683F9223F4D
:104E10001A61342C0020A23300A0FD390000C93FE4
:104E200000000080336D4CB9DA82083CA0AA2ABE8B
:104E3000B93AB2BACA9F2A3DDDFFFFBEF0B50246BD
:104E40000446514B83B040006946984209D2732111
:104E50000906884202D20020C04300E000200090F2
:104E600030E05000494B400898426BD24849104608
:104E700000F082F9FBF75CFF0746FBF74FFC800769
:104E8000800F00904349384600F076F9019042497E
:104E9000384600F071F906464049384600F06CF992
:104EA00005463F49384600F067F9214600F0BCF955
:104EB000294600F0C5F9314600F0C2F9019900F029
:104EC000BFF904462546009C002C3FDBE007354E29
:104ED000294608461AD000F04FF90546324900F03D
:104EE0004BF9324900F0AEF8294600F045F9304957
:104EF00000F0A8F8294600F03FF97F21C90500F02D
:104F0000A1F8A10700D5704003B0F0BD00F034F95E
:104F10000746284900F030F9274900F093F8394650
:104F200000F02AF9254900F08DF8394600F024F9FF
:104F3000294600F021F9294600F084F8A107E2D4BF
:104F400003B0F0BD1046FFF7EDFBBAE7FF216800A4
:104F50000906884209D22846FFF7BCFB042801D184
:104F6000FFF7D8FB284603B0F0BD884206D10120E8
:104F7000FBF72EFCFFF7C8FB03B0F0BD2846FFF798
:104F8000BAFB03B0F0BD0000B61F927E490E494641
:104F900083F9223F1A61342C0020A23300A0FD398E
:104FA0000000C93F00000080B93AB2BACA9F2A3D4A
:104FB000DDFFFFBE336D4CB9DA82083CA0AA2ABEE1
:104FC00070B50546FBF716FF41000446FF2049086F
:104FD000C005411AC90F07D069004908401AC00F1F
:104FE00002D10120FBF7F4FB204670BD10B500296B
:104FF0000AD00878002807D005487844FCF7B0FFAD
:10500000002801D0002010BD0248784410BD0000E7
:10501000660500005E05000010B500290AD008787A
:10502000002807D005487844FCF79AFF002801D0F3
:10503000002010BD0248784410BD00005605000055
:105040004E05000070B50125ED0704004C4020D44A
:10505000441A01D2001B0919C60D4B00F2B2FF2AF7
:1050600029D01B0E2CD000020C0228432C43D31A4B
:10507000DC40051910D2280A02D3401C6D0611D05D
:10508000761EF6058019FF2A00DA70BDC00DC00536
:1050900070BD694000F0DAF801200543C541521C9B
:1050A000761CE8E764089C40C90161408900E7D1AB
:1050B0000124A043E4E71B0E440200D0034870BD66
:1050C000002AFCD1C00FC00770BD00BF0000C07F28
:1050D0000123DB0502000A430DD4DA4203D49A42CD
:1050E00007D488427047D84214D4D94212D4884297
:1050F000704780427047DA4203D59A42F9D581421F
:1051000070475B004200DA4204D24A00DA4201D220
:105110008142704710B5024AFCF728FB10BD00BF62
:10512000090013040123DB0502000A430DD4DA420F
:1051300003D49A4207D488427047D84214D4D94243
:1051400012D48842704780427047DA4203D59A42AF
:10515000F9D5814270475B004200DA4204D24A002E
:10516000DA4201D28142704710B5024AFCF7FEFADA
:1051700010BD00BF0900160470B5420064414B0029
:105180005C41120E39D01B0E38D0FF2A3CD0FF2BC9
:105190003AD0D2187F3A40024902400A490A4518DB
:1051A000ED0106004E43000A090A48430104731A40
:1051B0004019190C4318990F04D05B0801214907C5
:1051C0005B1A521CD80904D3401CF50301D19D067B
:1051D00007D0FF2A08D2D50506D0E407204340199E
:1051E00070BD0125A843F4E7002A01DCE00770BD8B
:1051F0002402FF202043C00570BD1B0EFF2A03D0F0
:10520000FF2B01D0E00770BDFF2636064500B542F2
:1052100006D84D00B54203D8D218FF2A00D0E7E7E0
:10522000004870BD0000C07F70B50125ED076840E3
:1052300004004C4002D5694000F008F8FFF708FF71
:1052400070B50125ED0704004C4022D4441A02D267
:105250006C40001B0919C60D4B00F2B2FF2A4BD05F
:105260001B0E50D000020C02A8432C43D31ADC4082
:10527000051B05D5AD0019D36D08761E521E37D01B
:10528000F605280A01D2801970BD70416D0603D061
:1052900070BD6940FFF7DCFE9C4009026140490097
:1052A00001D0401E70BD0124A04370BD6D081DD00B
:1052B00001202B0C01D12D0410302B0E01D12D0219
:1052C00008302B0F01D12D01001DAB0F01D1AD0016
:1052D000801CEB0F01D16D00401C361A121A6D00B4
:1052E000680AF5054019012A02DB70BD002070BD77
:1052F000C036300AC00770BD1B0E440201D1FF2B1F
:1053000000D1024870BD002AF0D070BD0000C07FFF
:1053100003B402487844844603BC60473DBEFFFFA7
:1053200003B402487844844603BC6047A5C0FFFF2D
:105330008182838485868788898B8C8D8E8F9192DC
:1053400093959697999A9C9D9FA0A2A3A5A7A8AA7A
:10535000ACAEB0B2B3B5B7B9BCBEC0C2C5C7C9CC9C
:10536000CED1D4D7D9DCDFE2E6E9ECF0F3F7FAFEF0
:105370000000000000000000303132333435363791
:105380003839414243444546403058003031323389
:105390003435363738396162636465664030780089
:1053A00004000008000000000000000200010000EE
:1053B00010000000000000006E83F9A22915444E81
:1053C000D15727FCC0DD34F5999562DB4190433C11
:1053D000AB6351FE303132333435363738396162A0
:1053E000636465667870003031323334353637386F
:1053F00039414243444546585000000002400000F5
:10540000000000A00000000005400000000000C8EF
:10541000000000000C4000000000409C0000000064
:10542000194000000020BCBE000000003440000015
:10543000BFC91B8E00000004B5400000504BCFD008
:105440006607E2CF010000006C4100003E8251AAD5
:10545000DFEEA73401000000D9420000DCB5A0E275
:105460003A301F97FFFFFFFFB4450000FD25A0C89D
:10547000E9A3C14FFFFFFFFFFF3F000000000080D6
:1054800000000000FF3F000000000080000000005E
:1054900008000400000000000710000008000000E1
:1054A000180000000030000049434D3432363838CF
:1054B00020496E697469616C697A6174696F6E20E4
:1054C0004661696C6564210D0A0043616C69627212
:1054D0006174696F6E20646F6E65210D0A0048610A
:1054E00072644661756C74210D0A0049434D343273
:1054F00036383820496E697469616C697A65642050
:105500005375636365737366756C6C79210D0A005E
:105510004B656570207374696C6C2C2063616C69D9
:1055200062726174696E672E2E2E0D0A00252E326E
:10553000662C252E32662C252E32660D0A000000C0
:105540009056000000002020100000002001000004
:10555000A056000010002020C021000048010000DB
:105560001C00000043000000F8FFFFFF0C000000DB
:105570000E0000000F0000002E00000010010000CF
:1055800043000000F8FFFFFF004040404040404023
:105590004040414141414140404040404040404006
:1055A00040404040404040404005020202020202AA
:1055B00002020202020202020220202020202020F9
:1055C000202020020202020202029090909090900D
:1055D00010101010101010101010101010101010CB
:1055E000101010100202020202028888888888883F
:1055F000080808080808080808080808080808082B
:105600000808080802020202400000000000000032
:10561000000000000000000000000000000000008A
:10562000000000000000000000000000000000007A
:10563000000000000000000000000000000000006A
:10564000000000000000000000000000000000005A
:10565000000000000000000000000000000000004A
:10566000000000000000000000000000000000003A
:10567000000000000000000000000000000000002A
:10568000000000000000000000000000000000001A
:10569000765011162E304F1464654E1D750B0300A5
:04000005000000C136
:00000001FF
